:100000000C942A000C9434000C9434000C943400AA
:100010000C9434000C9434000C9434000C94340090
:100020000C9434000C9434000C9434000C94340080
:100030000C9434000C9434000C9434000C94340070
:100040000C9434000C9434000C9434000C94340060
:100050000C94340011241FBECFE5D8E0DEBFCDBF25
:100060000E9436000C9476000C9400000E945E0002
:100070006FEF89E00E9469006FEF8AE00E946900DB
:1000800067EF8BE00E94690061E08CE00E946900EC
:1000900060E0C1E007C0D1E0D60F8C2F0E9469005C
:1000A000CF5F6D2FC930B8F32FE38DE093E021507F
:1000B00080409040E1F700C00000EBCF87B3806B39
:1000C00087BB87B38F7B87BB81E590E09EB98DB9F5
:1000D000089598B39F7E98BB8FB9779BFECF6FB979
:1000E000779BFECF88B3806188BB0895F894FFCFDB
:00000001FF
