:100000000C942A000C943F000C943F000C943F0089
:100010000C943F000C943F000C943F000C943F0064
:100020000C943F000C943F000C943F000C943F0054
:100030000C943F000C943F000C943F000C943F0044
:100040000C943F000C943F000C943F000C943F0034
:100050000C943F0011241FBECFE5D8E0DEBFCDBF1A
:1000600010E0A0E6B0E0E6E7F4E002C005900D92F3
:10007000AE37B107D9F70E94BA010C9439020C943B
:10008000000081B3807F81BB81B3806F81BB8FEF24
:1000900082BB08950F931F93CF93DF9340E050E00E
:1000A0009DC032B3E0E6F0E081E090E08C0100809A
:1000B00002C0000F111F0A94E2F7EC01028002C097
:1000C000CC0FDD1F0A94E2F7DC01048002C0AA0F06
:1000D000BB1F0A94E2F7BC01068002C0660F771FBF
:1000E0000A94E2F72C2F202B2A2B262B232B22BB22
:1000F00022B3FA01EE0FFF1FE05AFF4F008002C04B
:10010000880F991F0A94E2F78095822382BB60E0F2
:1001100070E05EC080B3FB01EE0FFF1FE859FF4F98
:10012000208190E0022E02C0959587950A94E2F70F
:1001300080FD4CC080B390E0022E02C0959587955B
:100140000A94E2F780FFF6CF41305105C9F024F45C
:100150004115510541F03AC042305105F1F04330AC
:10016000510541F133C061157105F1F1613071053F
:10017000E9F162307105E1F16330710539F53AC09A
:1001800061157105C9F161307105C1F16230710508
:10019000B9F163307105D1F435C061157105A1F174
:1001A0006130710599F16230710591F1633071052B
:1001B00069F430C06115710579F16130710571F133
:1001C0006230710569F16330710561F16F5F7F4FD6
:1001D000643071050CF49ECF4F5F5F4F4430510582
:1001E0000CF45FCF8EE41FC087E31DC084E31BC007
:1001F00081E319C08FE317C088E315C085E313C0FE
:1002000082E311C080E30FC089E30DC086E30BC019
:1002100083E309C08DE307C08FE205C08AE203C013
:100220008DE201C08BE2DF91CF911F910F91089574
:1002300088B3877F88BB83ED90E30197F1F700C017
:10024000000088B3886088BB08958AB31ABA88B35F
:10025000846088BB88B38D7F88BB0E9418018FEFB4
:100260008ABB88B38B7F88BB0895CF93C82F0E9429
:100270002501CBBB88B3897F88BB89EF90E00197CC
:10028000F1F700C000000E941801CF91089581305D
:1002900039F4603168F480E8860F0E9435010895D2
:1002A000823031F4603120F480EC860F0E943501F9
:1002B000089581E00E943501089587E893E1019750
:1002C000F1F700C000000E94250187B38E6087BB54
:1002D00088B3817F88BB8FEF8ABB85EA9EE0019758
:1002E000F1F700C000000E94590188E30E94350127
:1002F00086E00E94350180E80E9435018FE00E946F
:1003000035010895CF93C82F0E942501CBBB88B338
:100310008B7F88BB88B3826088BB0E941801CF9115
:1003200008950F931F93CF93DF938C01C0E0D0E02B
:1003300018C021960F5F1F4F0E948201C031D10566
:1003400029F460E082E00E9447010BC0C032D10571
:1003500041F40E94590160E081E00E944701C0E041
:10036000D0E0F80180818111E4CFDF91CF911F911E
:100370000F910895CF93DF9300D000D0CDB7DEB7B3
:100380000E945D0183EC99E00197F1F700C0000045
:100390000E94410080E790E00E9491019FE724E8DD
:1003A0008EE1915020408040E1F700C000000E94A3
:1003B000590119821A821B821C820E944A00182F3E
:1003C0008F3319F08E34C9F303C00E945901F5CF61
:1003D00089819A81AB81BC814097A105B10578F4F0
:1003E000812F0E94820189819A81AB81BC81019613
:1003F000A11DB11D89839A83AB83BC83DECF898124
:100400009A81AB81BC814097A105B10500F189813A
:100410009A81AB81BC818097A105B105C0F4898127
:100420009A81AB81BC8160E1681B82E00E94470138
:10043000812F0E94820189819A81AB81BC810196C2
:10044000A11DB11D89839A83AB83BC83B6CF80E2A3
:1004500090E0A0E0B0E089839A83AB83BC831982EB
:100460001A821B821C820E945901812F0E948201E4
:06047000A4CFF894FFCFB9
:10047600040005000600070000000100020003005A
:0E048600506F776572206F6E2E2E2E2E2E0078
:00000001FF
