:100000000C942A000C9434000C9434000C943400AA
:100010000C9434000C9434000C9434000C94340090
:100020000C9434000C9434000C9434000C94340080
:100030000C9434000C9434000C9434000C94340070
:100040000C9434000C9434000C9434000C94340060
:100050000C94340011241FBECFE5D8E0DEBFCDBF25
:100060000E9436000C945A000C9400008FEF90E030
:100070009BBB8ABB0E944500CFEF8C2F0E94500093
:1000800090E09CBB8BBBC150F8CF87B3806487BB2B
:1000900087B38F7487BB80E490E09EB98DB90895D3
:1000A00090E090BB8FB98EB19FB187FFFCCF8FB12D
:0800B00090B30895F894FFCF0E
:00000001FF
