:100000000C942A000C9434000C9434000C943400AA
:100010000C9434000C9434000C9434000C94340090
:100020000C9434000C9434000C9434000C94340080
:100030000C9434000C9434000C9434000C94340070
:100040000C9434000C9434000C9434000C94340060
:100050000C94340011241FBECFE5D8E0DEBFCDBF25
:100060000E9436000C945F000C9400008FEF8ABB56
:100070000E944A00C0E02FE38DE093E021508040D1
:100080009040E1F700C000008C2F0E9455008BBB10
:10009000CF5FF1CF87B3806B87BB87B38F7B87BB85
:1000A00081E590E09EB98DB9089590E090BB8FB93D
:1000B0008EB19FB187FFFCCF8FB190B30895F894B4
:0200C000FFCF70
:00000001FF
